:1008620048656C6C6F2C20776F726C642066726FB7
:0E0872006D207768656174666F78210D0A004D
:10082500438780759850538EBF538EFE53890F436F
:0F0835008920758BE6758DE6D28ED2ACD2AF22BC
:030023000208448C
:10084400C0E0C0D030980BC298859980E59924FF08
:0E0854009291309904C299C200D0D0D0E03207
:0808D4002000FDD2008F9922E3
:100800008B088A09890AAB08AA09A90A12089A6002
:1008100013050AE50A7002050914F912089AFF1275
:0508200008D480E22273
:1008B3001208257BFF7A0879621208007FE87E031D
:0508C30012088080EE28
:10088000E4FDFCC3ED9FEC9E500F00000000000053
:0908900000000DBD00010C80EA1E
:01089900223C
:030000000208C82B
:0C08C800787FE4F6D8FD7581200208B3AB
:10089A00BB010689828A83E0225002E722BBFE025C
:0908AA00E32289828A83E493228F
:00000001FF
