:10088C0057656C636F6D6520746F205155415254E0
:10089C005A5F5254206D696E696D616C204F532004
:1008AC00666F7220535443383920736572696573CF
:1008BC00206D6963726F636F6E74726F6C6C6572AE
:1008CC00730A0D00417574686F723A207768656120
:1008DC0074666F7828656E6B65726577706F4068AB
:1008EC006F746D61696C2E636F6D29000A0D3E008B
:1008FC00666F756E64206E65776C696E650A0D00A7
:0309FF00012200D2
:10099400438780759850538EBF538EFE53890F43FF
:1009A4008920758BE6758DE6D28ED2ACD2AF439892
:0209B40010220F
:030023000209458A
:10094500C0E0C0D075D008309810C298AF220522FB
:1009550074232FF8A699A2989290309908C299C24B
:0A09650000A2999291D0D0D0E032A8
:0809F7002000FDD2008F9922BF
:10096F008B108A118912AB10AA11A9121209D0602B
:10097F00130512E5127002051114F91209D0FF12B6
:05098F0009F780E222DF
:0E09E900E52260FC152274232522F8E6FF2289
:10090C001209947BFF7A08798C12096F7BFF7A08A5
:10091C0079D080197BFF7A0879F812096F1209E9EE
:10092C008F21E521B40A0B7BFF7A0879FC12096F41
:09093C0080E2AF211209F780E40A
:1009B600E4FDFCC3ED9FEC9E500F0000000000001C
:0909C60000000DBD00010C80EAE7
:0109CF002205
:03000000020800F3
:0C080000787FE4F6D8FD758142020847BD
:1009D000BB010689828A83E0225002E722BBFE0225
:0909E000E32289828A83E4932258
:10080C0002090CE493A3F8E493A34003F68001F2ED
:10081C0008DFF48029E493A3F85407240CC8C333ED
:10082C00C4540F4420C8834004F456800146F6DFBC
:10083C00E4800B01020408102040809009FFE47E44
:10084C00019360BCA3FF543F30E509541FFEE493B1
:10085C00A360010ECF54C025E060A840B8E493A378
:10086C00FAE493A3F8E493A3C8C582C8CAC583CAA3
:10087C00F0A3C8C582C8CAC583CADFE9DEE780BE5B
:010A020000F3
:00000001FF
